:030000000200B04B
:0C00B000787FE4F6D8FD7581130200F79C
:0A02E3003F065B4F666D7D077F6FDD
:1002A200020A000002120000020E0000020C00000E
:0402B200020800003E
:10026E007C00AF03AE021201BE7C007D0A1201BEFD
:10027E0074E32DF58274023CF583E493F5807FC818
:02028E007E00F0
:10029000D3EF9400EE9400400800EF1F70F21E8030
:0202A000EF224B
:0F02C700D290D291D292D2937FC87E0002029041
:10013C00AB07AA061202C7C290D291D292D2937C7C
:10014C00037DE8AF03AE021201BE74E32FF5827497
:10015C00023E1202861202C7D290C291D292D29360
:10016C007D6412026E1202C7D290D291C292D293C7
:10017C007D0A12026E1202C7D290D291D292C29311
:10018C00AE02AF037C007D0A1201BE74E32DF58232
:10019C0074023CF583E493F5807F467E0002029066
:1002B700438901758CFC758A18D2A9D2AFD28C22DA
:0702ED00D288D2A8D2AF2293
:03000B00020213DB
:10021300C0E0C0F0C0D075D000C000C004C005C0AD
:0302230006C0070B
:10022600758CFC758A180509E50970020508C394E2
:10023600E8E50894034020AE0CAF0D7C007D3C122F
:1002460001AC7D191201BE8E0E8F0F750C00750D57
:0702560000750800750900A6
:10025D00D007D006D005D004D000D0D0D0F0D0E05B
:01026D00325E
:030003000202D620
:0D02D600C0E0050DE50D7002050CD0E03212
:10000E001202B71202EDC29620942412028CD3E58E
:10001E0013940AE51264809480400CE51324F6FFD5
:10002E00E51234FFFE80047E007F008E128F1320B7
:10003E00952312028CC3E51394DEE512648094833B
:10004E00500BE5132414FFE43512FE80047E037F6B
:10005E00E88E128F13D3E513940AE5126480948010
:10006E005004C2978019D297AF13AE12120290C2EB
:10007E0097C374E89513FF74039512FE1202900550
:10008E000BE50B7002050AC39402E50A94005003B7
:10009E00020016E4F50AF50BAF0FAE0E12013C028C
:0200AE0000163A
:1000BC0002000EE493A3F8E493A34003F68001F24C
:1000CC0008DFF48029E493A3F85407240CC8C33345
:1000DC00C4540F4420C8834004F456800146F6DF14
:1000EC00E4800B01020408102040809002A2E47E00
:1000FC00019360BCA3FF543F30E509541FFEE49309
:10010C00A360010ECF54C025E060A840B8E493A3CF
:10011C00FAE493A3F8E493A3C8C582C8CAC583CAFA
:10012C00F0A3C8C582C8CAC583CADFE9DEE780BEB2
:0102B6000047
:1001AC00EF8DF0A4A8F0CF8CF0A428CE8DF0A42E67
:0201BC00FE2221
:1001BE00BC000BBE0029EF8DF084FFADF022E4CC25
:1001CE00F875F008EF2FFFEE33FEEC33FCEE9DECEE
:1001DE00984005FCEE9DFE0FD5F0E9E4CEFD22ED34
:1001EE00F8F5F0EE8420D21CFEADF075F008EF2F7E
:1001FE00FFED33FD4007985006D5F0F222C398FD6F
:05020E000FD5F0EA220B
:00000001FF
