:03000000020003F8
:0C000300787FE4F6D8FD75810902004A00
:040105000208038465
:1000F300D3EF9400EE9400400800EF1F70F21E80CF
:02010300EF22E9
:10008F00D2B620B421D3E5099400E50864809480AA
:10009F00400CE50924FFFFE50834FFFE80047E00D5
:1000AF007F008E088F0920B520C3E50994E8E50885
:1000BF0064809483500BE5092401FFE43508FE802A
:1000CF00047E037FE88E088F09D2B7AF09AE0812FE
:1000DF0000F3C2B7C374E89509FF74039508FE12C5
:0400EF0000F3809EFC
:10000F0002008FE493A3F8E493A34003F68001F278
:10001F0008DFF48029E493A3F85407240CC8C333F2
:10002F00C4540F4420C8834004F456800146F6DFC1
:10003F00E4800B0102040810204080900105E47E4B
:10004F00019360BCA3FF543F30E509541FFEE493B6
:10005F00A360010ECF54C025E060A840B8E493A37D
:10006F00FAE493A3F8E493A3C8C582C8CAC583CAA8
:10007F00F0A3C8C582C8CAC583CADFE9DEE780BE60
:0101090000F5
:00000001FF
