:0300000002014FAB
:0C014F00787FE4F6D8FD75811702019658
:0A0380003F065B4F666D7D077F6F3F
:10033800020A000002160000020E00640212000009
:08034800021000000208000091
:10035100D3EF9400EE9400400800EF1F70F21E806E
:02036100EF2289
:100304007C00AF03AE021202547C007D0A12025438
:1003140074802DF58274033CF583E493F580AF0F6C
:05032400AE0E120351B2
:0F032900D290D291D292D293AF0FAE0E02035167
:1001DB00AB07AA06120329D290D291D292D2937C6A
:1001EB00037DE8AF03AE0212025474802FF58274C4
:1001FB00033E12031CC290D291D292D2937D641211
:10020B000304D290C291D292D2937D0A120304D2EC
:10021B0090D291C292D293AE02AF037C007D0A12B0
:10022B00025474802DF58274033CF583E493F580BE
:07023B00AF0FAE0E020351EC
:10000E00AB07AA06120329D294D295D296D2977C28
:10001E00037DE8AF03AE0212025474802FF5827492
:10002E00033EF583E493F5A0120322C294D295D237
:10003E0096D2977C007D64AF03AE021202547C0010
:10004E007D0A12025474802DF58274033CF583E40C
:10005E0093F5A0120322D294C295D296D2977C0029
:10006E007D0AAF03AE021202547C007D0A120254C6
:10007E0074802DF58274033CF583E493F5A012038E
:10008E0022D294D295C296D297AE02AF037C007D57
:10009E000A12025474802DF58274033CF583E493A6
:0900AE00F5A0AF0FAE0E020351E4
:10036300438901758CFC758A18D2A9D2AFD28C222D
:07038A00D288D2A8D2AF22F5
:03000B000202A945
:1002A900C0E0C0F0C0D075D000C000C004C005C017
:0302B90006C00775
:1002BC00758CFC758A180509E50970020508C3944C
:1002CC00E8E50894034020AE10AF117C007D3C1291
:1002DC0002427D191202548E128F13751000751183
:0702EC000075080075090010
:1002F300D007D006D005D004D000D0D0D0F0D0E0C5
:0103030032C7
:0300030002037382
:0D037300C0E00511E51170020510D0E03268
:1000B70012036312038AC2B620B4287FC87E0012D7
:1000C7000351D3E517940AE51664809480400CE544
:1000D7001724ECFFE51634FFFE80047E007F008EB8
:1000E700168F1720B5277FC87E00120351C3E51767
:1000F70094DEE51664809483500BE5172414FFE41F
:100107003516FE80047E037FE88E168F17D3E5171A
:10011700940AE516648094805004C2B78019D2B758
:10012700AF17AE16120351C2B7C374E89517FF7421
:10013700039516FE120351AF13AE1212000EAF1342
:08014700AE121201DB0200BF41
:10015B000200B7E493A3F8E493A34003F68001F203
:10016B0008DFF48029E493A3F85407240CC8C333A5
:10017B00C4540F4420C8834004F456800146F6DF74
:10018B00E4800B0102040810204080900338E47EC9
:10019B00019360BCA3FF543F30E509541FFEE49369
:1001AB00A360010ECF54C025E060A840B8E493A330
:1001BB00FAE493A3F8E493A3C8C582C8CAC583CA5B
:1001CB00F0A3C8C582C8CAC583CADFE9DEE780BE13
:0103500000AC
:10024200EF8DF0A4A8F0CF8CF0A428CE8DF0A42ED0
:02025200FE228A
:10025400BC000BBE0029EF8DF084FFADF022E4CC8E
:10026400F875F008EF2FFFEE33FEEC33FCEE9DEC57
:10027400984005FCEE9DFE0FD5F0E9E4CEFD22ED9D
:10028400F8F5F0EE8420D21CFEADF075F008EF2FE7
:10029400FFED33FD4007985006D5F0F222C398FDD8
:0502A4000FD5F0EA2275
:00000001FF
